:020000041000EA
:1000000000B5324B212058609868022188439860DF
:10001000D860186158612E4B002199600221596106
:100020000121F02299502B49196001219960352056
:1000300000F044F80222904214D00621196600F024
:1000400034F8196E01211966002018661A6600F04E
:100050002CF8196E196E196E052000F02FF8012189
:100060000842F9D1002199601B49196000215960AB
:100070001A491B48016001219960EB211966A021F2
:10008000196600F012F800219960164914480160C1
:100090000121996001BC002800D000471248134993
:1000A000086003C880F30888084703B5996A0420EC
:1000B0000142FBD001200142F8D103BD02B5186610
:1000C0001866FFF7F2FF186E186E02BD00000240BE
:1000D000000000180000070000035F00212200005C
:1000E000F4000018222000A00001001008ED00E03C
:1000F00000000000000000000000000074B24E7A12
:1001000000200420F7010010C3010010C5010010F9
:10011000C1010010C1010010C1010010C101001097
:10012000C1010010C1010010C1010010C701001081
:10013000C1010010C1010010C9010010CB01001065
:10014000CD010010CD010010CD010010CD01001037
:10015000CD010010CD010010CD010010CD01001027
:10016000CD010010CD010010CD010010CD01001017
:10017000CD010010CD010010CD010010CD01001007
:10018000CD010010CD010010CD010010CD010010F7
:10019000CD010010CD010010CD010010CD010010E7
:1001A000CD010010CD010010CD010010CD010010D7
:1001B000CD010010CD010010CD010010CD010010C7
:1001C00000BE00BE00BE00BE00BE00BEEFF3058054
:1001D000103800BEF2EB8871BC610010EC610010B9
:1001E0003402001090A31AE700201F49086006C8D7
:1001F00081F3088810471D48006800282FD10DA4FE
:100200000ECC002902D000F012F8F9E71849194A7B
:10021000002000E001C19142FCD1174988471749ED
:1002200088471749884700BEFDE701C901C29A42C5
:10023000FBD37047EC610010C0000020701B002051
:100240009C7C001000000420000004209C7C001016
:10025000001004200010042000000000704709482E
:1002600002F0F0F90047000008ED00E0000000D0C7
:10027000701B00204429002089240010F103001085
:10028000B12500105756000006005250ABB3605322
:10029000405E001006005250861C0302505E0010A3
:1002A000060052505422A29D5C5E00100500525080
:1002B000DE65F4689C7C0010F8B5C0460448054B28
:1002C00010B5834203D0044B002B00D0984710BDDB
:1002D000701B0020701B002000000000064807492A
:1002E000091A8B10C90FC91810B5491003D0044B57
:1002F000002B00D0984710BD701B0020701B002001
:100300000000000010B5074C2378002B09D1FFF73F
:10031000D5FF054B002B02D0044800E000BF0123AD
:10032000237010BD781E002000000000605B0010EC
:10033000054B10B5002B03D00449054800E000BF71
:10034000FFF7CCFF10BDC046000000007C1E00205F
:10035000605B0010F0B557464E464546DE46212309
:10036000E0B587B004AC23700B78834663704B789C
:100370008A46A3702223E3708B7800272371CB7801
:100380001A4E637116236B4499468023984603AD39
:10039000424623782A706B702A0002233C213000E9
:1003A0000097013404F0D0FEA145F1D153465B68BB
:1003B0005D1C2800984602F05FFA40230400424684
:1003C00059460370013002F07BFA2B0022003C21D9
:1003D0003000009704F0B8FE200002F05FFA07B08A
:1003E000F0BCBB46B246A946A046F0BD08130020AB
:1003F000F0B5DE464E4657464546E0B5DC4CA544D2
:1004000002F0C6FBDB4802F08DFBDB49DB4804F061
:1004100071FE0321042000F0CBFA0321052000F037
:10042000C7FA00220121042000F0DAFA0121052098
:10043000002200F0D5FAD24C14AD2B00220043CAA2
:1004400043C343CA43C312882E001A8006AA52230C
:100450009446634499468023984600239A460DAFFC
:10046000337842467B7053463A703C2100933A0001
:100470000223C248013604F067FEB145F0D1802264
:10048000C04BD200002128000B930C9202F012FA0C
:1004900028000BA9FFF75EFF3A001C340BCC0BC2FF
:1004A0000BCC0BC2236813600023069705936B46A1
:1004B00014229B5E069A11680A78002A68D0DB1025
:1004C000DB010493052344E0303A092A56D8FF2281
:1004D0000240153AAC48D200805C8346AA48844664
:1004E0006244507857798246907896798146D078E0
:1004F00080461079D279029003928720049AC00036
:100500009A18121806A884465C46A048624410183F
:10051000047054469E48101804704C469D481018AC
:10052000047044469C48101804709C48029C1018A3
:1005300004709B48101807709A48101806709A4863
:1005400084460398624410700A7808331BB2002A6C
:100550001ED00131782BF7DC9448845C03200440E2
:100560001000022C02D1203A1000D2B21400413CFB
:10057000192CA9D8FF220240403AABE700220026FE
:100580000027904691469246934603920292B4E722
:10059000059B069A0833043205930692382B86D1C0
:1005A00000240BA92800FFF7D5FE814801F0A8F828
:1005B00009AA16007F4B3C21138070480223009447
:1005C000049204F0C1FD7A4801F09AF87A4B3200A7
:1005D00033803C2102236948009404F0B5FD0223D6
:1005E0000793013B06937F23059300237F24039306
:1005F000059BDA179B1853409C4601239846039BA2
:10060000A34202DB01235B4298466346069A002719
:1006100003983F3B002A00D035E1924607329346CB
:1006200059460126524639408E40D2011218A95C23
:10063000B143A95484420DD05A0011003F3104DA6D
:100640000137FA1092466344EAE73F3B4044944541
:10065000E6DBF5E73F2FEFD12123049A137006ABB9
:100660001B7D537006AB5B7D93702223D37006AB6A
:100670009B7D137106ABDB7D537109AB1F000493A7
:10068000802398463B7806A94B72424600230A72A3
:100690003A48009308AA02333C2104F055FD06AA0B
:1006A0001223944601376344BB42EBD10C9B013CBF
:1006B000994601234B441800984602F0DDF8402388
:1006C000070003704A462900013002F0F9F80023C0
:1006D0003A003C2100932948434604F035FD380098
:1006E00002F0DCF8039B059A0133023A039305926A
:1006F000802B00D07CE7BF3B98467E339946002391
:100700000393013B9A463F234946039A9A1A403382
:10071000581A069B002B00D0D6E01900D7177E0F81
:10072000B3469446DC446646072426405C46361BA6
:10073000B44601266446A6400723B3463B409B18B7
:10074000DB10DB015B18EC5C26005C46A643EE5434
:100750007F2933D04300984503DD52447F30D717BB
:10076000DDE74C460131001B7F2BD8DCF5E7C046A6
:10077000ACFBFFFFF05B0010801A0600081300209E
:10078000285C0010007F0007745C001000FCFFFF75
:1007900001FCFFFF02FCFFFF03FCFFFF04FCFFFF67
:1007A00005FCFFFF06FCFFFF07FCFFFFB960001020
:1007B000B80B000080A7FFFF80A6FFFF039B9342BA
:1007C000C8D12123049A137006AB1B7D537006AB6E
:1007D0005B7D93702223D37006AB9B7D137106ABB8
:1007E000DB7D537109AB1F000493802399460023DE
:1007F0009B463B7806A94B724A465B460A7268489C
:10080000009308AA02233C2104F09EFC06AA1223AE
:100810009446013763449F42EBD10C9B9A460123D7
:1008200053441800994602F027F84023804603708D
:1008300052462900013002F043F85B4642463C2113
:10084000009357484B4604F07FFC404602F026F8E0
:10085000039B3F2B62D01A00013253003F3BD81755
:10086000191841408946D917CB1A4B4098460121A7
:100870003F238A4603929B1A934200DA43E70123FF
:100880005B429A463FE7002292460732934659461A
:10089000012639408E4052463100D2011218AE5C1A
:1008A0003143A954A0420CD05A0011003F3103DB60
:1008B0003F3B40449445EADB0137FA1092466344DB
:1008C000E5E73F2FF0D1C7E600231900D7177C0FCB
:1008D000A3469446DC4407246646264034005E4620
:1008E000A41B01260723A6403B409B18DB10DB011D
:1008F0005B18EC5C2643EE547F290BD04300434544
:1009000004DB4C460131001B7F2BE0DC52447F307E
:10091000D717DCE7039B9342F0D152E700230693FD
:10092000079B012B39D11F4B98461F4B9946049BBF
:100930009A464B460993E0235246DB00938009AB6D
:100940009A461C0080270025237806AA5372177246
:10095000022308AA3C211248009504F0F5FB06AAE0
:100960001223944601346344A342EDD10F4801F0B1
:1009700083FF40238022040041460370D2000130EF
:1009800001F09EFF22003C21084B0095044804F032
:10099000DBFB200001F082FFCBE70123079322E677
:1009A00008130020180E002021007F2201040000FF
:1009B000094A830094464022634410B51C68C00075
:1009C0006240C02414408022520113431C60034B38
:1009D0009C466044416010BD04C00140004001409D
:1009E0000A4B80009C4604236044002901D00C235C
:1009F0000821002A00D10B00026853400C221A4043
:100A000080235B01184302607047C04604C0014068
:100A1000024B18688007C00F7047C04600C00640F0
:100A200070B5EFF3108C72B60D4D2B68002BFCD017
:100A3000BFF35F8F0724CB08C618C05C01230C40AE
:100A4000A3401C000440034207D103433370BFF3AB
:100A50005F8F2C608CF3108870BD100001F0ACFD2E
:100A60002C0100D0F8B54746CE46884680B5EFF356
:100A7000108C72B6214D2C68002CFCD0BFF35F8F18
:100A80009A422CD8D4080727055D0619012417407F
:100A9000BC402C421FD007210127894609E0D40819
:100AA000055D06194C4639001440A1400C0029424E
:100AB00011D001329342F2D201204042BFF35F8F46
:100AC00000220E4B1A608CF3108800280FDBC0BC8C
:100AD000B946B046F8BD2C4310003470EEE7BFF3C2
:100AE0005F8F00232B608CF3108801204042434627
:100AF000002BECD0089801F05FFDC0462C0100D01F
:100B00000021044B044ABFF35F8F02C39342FAD122
:100B10007047C046000100D0800100D0044A107820
:100B2000431CDBB2172B00D9102313707047C0464B
:100B30001812002000B5054B83B001000093182265
:100B40001F230348FFF78EFF03B000BD9C5D00101C
:100B50003024002001238340002904D0034A13607D
:100B6000034A13607047034A1360FBE780E200E02A
:100B700000E100E080E100E001238340014A1360CE
:100B80007047C04600E200E0084B10309B688000D0
:100B9000C358002B07D0064A00209B1A2F229A42E6
:100BA0004041C0B270470020FCE7C04600ED00E0C5
:100BB0001C120020024B10309B688000C058704708
:100BC00000ED00E070B50D00EFF3108672B60F4A2D
:100BD0001368002BFCD0BFF35F8F0D4B10309B6868
:100BE00084001B590B4A934203D09D4201D001F06F
:100BF000FBFC074B9B681D51BFF35F8FBFF35F8FFB
:100C00000022024B1A6086F3108870BD240100D0C8
:100C100000ED00E0CD010010F0B557464E46DE462F
:100C20004546E0B585B0060002911700EFF3108B42
:100C300072B6674A1368002BFCD0BFF35F8F0025A4
:100C4000644B5D579A46002D00DAA4E06B00624CBD
:100C500003935B199B009846A146C1444B465246FC
:100C60009B79103613705D4BB2009B6801929958C6
:100C70000B1B2F2B34D95A4B994200D0A4E0039B75
:100C8000584A9C46584B6544AD0063534346023373
:100C90006519E418554B0121043B1B1B1B055B0D1B
:100CA00013436B80524BEF71AB80FF23AB71029B00
:100CB000AB604B460B431900484B019A9B68995017
:100CC000BFF35F8FBFF35F8F0022414B1A608BF33E
:100CD000108805B0F0BCBB46B246A946A046F0BDA0
:100CE00001200A008243D379BB422FD845464E46A5
:100CF000130040491B1B5B415943090D3A4B635399
:100D00003A4B02356519043B5B1B1B05354D5B0DEA
:100D10002B4373800426B446E0444444131F1B1B3A
:100D20004C46A17102991B05A16049465B0D2B43FE
:100D3000A380314BE77101431360BDE75800C01831
:100D400080002018C679BE422BD902000623D35654
:100D5000002BF3DA101D824628488046042676428E
:100D6000B446E14450464E46361A3005400D8246A0
:100D700056461C48957106439680039A94466544EE
:100D80001D4AAD00641922604246A371029BA280F5
:100D9000E771A36090E701F027FC002553465D57FB
:100DA00054E7101D82469088400500158446404651
:100DB000D444664604302018301AE0260005400D61
:100DC000360230438046C9E701F00EFC57E7C046C3
:100DD000240100D03D2900201C12002000ED00E07D
:100DE000CD01001000E0FFFF00A1FFFF4C1200202A
:100DF00001BDFFFFAAAA00000148804701BD000015
:100E0000F0B5DE4657464E464546E0B50C0083B089
:100E1000EFF3108972B6584A1368002BFCD0BFF369
:100E20005F8F564B9A68030010339F00D559544A80
:100E30009046954232D0A54243D0524EAA1B2F2A4B
:100E40002CD801228240924651464F4A12681140E6
:100E5000019151464D4A1160BFF35F8FEFF3058258
:100E60009346002A33D101232A009A4393689C4277
:100E700008D177E04B005B189B00F3189968A142FA
:100E80002AD01A00062151560029F3DA019B002BC3
:100E900019D052463E4B1A603B4B1A60374B9B6849
:100EA000DD51BFF35F8FBFF35F8F0022324B1A60BB
:100EB00089F3108803B0F0BCBB46B246A946A046F1
:100EC000F0BD1500EAE75246304B1A60E6E7934260
:100ED000C9D001F089FBC6E706215956002921DB5C
:100EE0004A005018800034188046A0689860E07965
:100EF000D871062020569871002824DBA488F01AA7
:100F00006405241544440019E0240005400D240222
:100F10002043988052181F4B9200B6181A78197007
:100F2000B271B3E7594600290FD1FF3191711A49C7
:100F3000918018490A789A71184A9B1B5B415A4361
:100F4000120D0A70A2E71648E3E7164A1649D21AAC
:100F5000083A5002400D01439980144952080A434F
:100F6000DA8093E70621515613000029B8DA5A4671
:100F7000002AEAD14546DCE7240100D000ED00E07C
:100F8000CD0100101C12002000E100E080E100E033
:100F900080E200E03D29002001BDFFFFAAAA000079
:100FA00001BD00005612002000F0FFFF00F8FFFF17
:100FB00070B5EFF3058101240443EFF3108C72B692
:100FC000214A1368002BFCD0BFF35F8F1F4B050035
:100FD0001F4AED1A6D416A43120D1E4D8900AE681D
:100FE00052B27658A6421CD00621595691421CD0C6
:100FF00012215956914222D01E215956914220D099
:101000002A2159560324914210D0134B19781A7093
:101010008171BFF35F8F00220B4B1A608CF3108835
:1010200070BDAB680D4C5C50EFE7002461000919FE
:1010300089005B18FF21997109499980E5E701242E
:10104000F4E70224F2E7C046240100D01C1200207D
:10105000AAAA000000ED00E03D290020CD0100100B
:1010600001BDFFFF054B064A1360064A136053603B
:101070009360D36013615361936170478080808077
:1010800000E400E004E400E000B5074B83B0010099
:101090000093002205230548FFF7E4FC002801DB4C
:1010A0001F23181A03B000BDB85D001042290020AC
:1010B000024B9C4661448900016070474000003447
:1010C00010B50400FFF72AFD01002000FFF7F0FF34
:1010D000FF232371BFF35F8F10BDC04610B504001E
:1010E000FFF71CFD01002000FFF7E2FFFF23A380B4
:1010F000BFF35F8F10BDC04610B504000120FFF79D
:1011000019FD044B9C46604480002060BFF35F8F54
:1011100010BDC04640000034034B9C46614489002A
:101120000160BFF35F8F70474000003483680B4855
:1011300010B5844661446244090112019A18591895
:1011400054684B6801209C4201D802D00020C0B2F4
:1011500010BD12680B689A42F9D8F7E7FFFFFF0F3E
:101160000A4B1968EFF3108072B60A68002AFCD0A7
:10117000BFF35F8F1B68BFF35F8F00221A6080F39D
:10118000108840BF002000217047C046042900207D
:10119000F8B557464E464546DE46E0B599460CAB97
:1011A0001C780DAB1B78060090469A460768002C09
:1011B00011D1BC7B002C42D065003B682D19033D4A
:1011C00059194B78BB73002B00D1FB7300238B7034
:1011D0004B700B7004E065003B682D19033D5919F5
:1011E000B2682A4B94464246E3181B0163441A60D6
:1011F0004A465A600A9A9A600B9ADA6000238B700A
:101200004B700B707B7B9B46002B2BD022005946EA
:10121000B8687B6898473A68002816D05B465846FD
:101220005B005B445519033BA870D118D35C002BBD
:1012300000D06B705B460C707B73A34513D0F0BC81
:10124000BB46B246A946A046F8BD5B465B005B4480
:10125000033BD3189C705119525D002A00D05A707C
:101260005B460B707C7342464B46307D00F0C0FB02
:10127000051E06D05346002B03D12100306800F034
:10128000DBFD0E9B002BDAD01D70D8E7FFFFFF0FB0
:10129000F0B5DE4657464E4645460023E0B58BB0D6
:1012A0000893674B8200D45800239B46099000F0B6
:1012B00015FB626806000F00EFF3108572B6136825
:1012C000002BFCD0BFF35F8F23689C465B7B994665
:1012D000002B00D169E0A2685A4B90464B441B0199
:1012E000984443461A685B6810001900801BB94196
:1012F000002900DC63E0099800F07AFB002300225B
:10130000984600230692079300239A466368BFF32A
:101310005F8F5A461A6085F310885346002B08D118
:101320000028C4D10BB0F0BCBB46B246A946A046CB
:10133000F0BD089B414618024B461843D0476268EF
:1013400006000F00EFF3108572B61368002BFCD077
:10135000BFF35F8F002F50DB33003B4302D0236984
:10136000002B61D12368D97B002907D04A0052188D
:1013700019688C4649466244033A51709A7B002AA8
:1013800001D14A469A734A46DA734B46E168013BFB
:10139000CA5C0132CA545B4623616368BFF35F8F46
:1013A0005A461A6085F3108881E700230022984688
:1013B000002306920793002300209A46A6E70029FF
:1013C00002D1002800D096E70021604600F0B2FC70
:1013D00043461A685B680692079343469B689A46A1
:1013E0004346DB689846E3684B44013B1B7808930F
:1013F0001B0203432361002088E72369002BB1D03F
:10140000069A079B921BBB41002B15DB59460491A2
:101410000121039149460291414601915146200024
:101420000091FFF7B5FEB6E700F058FA32003B0036
:1014300012184B41002BE9DA0122034B5242E5E737
:10144000E8280020FFFFFF0FFFFFFF7F10B5144CBF
:101450006368002B04D00A211248FFF729FE10BD53
:101460002300114A1021206800F07EFB032000F0C9
:1014700029FA032000F026FB03200C4900F072FA41
:10148000FFF74CFB0A4B9C4603232375D0231B0616
:101490001B6860446375074B80006060DC60DAE7BE
:1014A00064120020042900202D1100109112001058
:1014B00040000034E82800200048704764120020F3
:1014C000F0B54E464546DE465746E0B585B0019339
:1014D00010AB1B78060003930023994698460092B0
:1014E0007268EFF3108B72B61368002BFCD0BFF359
:1014F0005F8F3568AC7B002C3DD067002B683F19AF
:10150000033FDB195A78AA73002A00D1EA73B16845
:10151000474A8C4600980199A21812016244106053
:1015200051600E9991600F99D16042469A705A703D
:101530001A706B7B9A46002B67D022001900A868AE
:101540006B6898472A68002852D0534650465B0083
:101550005344D719033BB870D118D35C002B00D08B
:101560007B7053460C706B7354454FD0F3681B1956
:10157000013B187800E000207368BFF35F8F42469C
:101580001A608BF31088002C4FD04B46002B08D1EB
:101590000002204305B0F0BCBB46B246A946A046B7
:1015A000F0BD039B002B3ED00E9B00200F99984767
:1015B000030004000D000B4335D000290ADA009A1D
:1015C000019B121BAB4100920193002B0ADB039B92
:1015D000994685E700F082F924184D410094019561
:1015E000002DF4DA0123134C5B4200930194EEE7E3
:1015F00053465B005344033BD3189C70D119D25D12
:10160000002A00D05A7053460B706C73307D009ADC
:10161000019B00F0EDF981460028A7D02100306839
:1016200000F00AFCA2E70020B4E701204042B1E745
:10163000FFFFFF0FFFFFFF7F407D7047F0B5040005
:101640000D0006267642F717C64636196F4100B5DB
:1016500084B08F4214D811D000F040F932003B0022
:10166000121A8B41002B15DC002B3ED020002900E4
:1016700000F068F904B080BCB846F0BD8642EBD9F2
:101680000026002700F02AF932003B00121A8B4195
:10169000002BE9DD002302930193154B32000093E8
:1016A00014483B00FFF70CFF0028DFDB00239846BF
:1016B000BC46114A114F7B6A9C4504D8B96A8E42D8
:1016C000D4D99C45D2D11168EFF3108072B60B6863
:1016D000002BFCD0BFF35F8F1368BFF35F8F4146D1
:1016E000196080F3108820BFE5E7002ABED0D1E75B
:1016F0006111001064120020042900200040054000
:1017000070B5060000F0EAF8FA2204000D0000238C
:1017100030000021920001F04DF8001969410029C4
:1017200002DBFFF78BFF70BD012001494042F8E763
:10173000FFFFFF7FF0B5EFF30583CE46474680B548
:1017400005000C0085B0002B12D02C4A0020536AF3
:101750009C4203D8926A0130AA4204D305B0C0BCAF
:10176000B946B046F0BDE01A421E9041C0B2F5E75E
:10177000234E02930193234B0200009330000B0091
:10178000FFF79EFE031EE0DD20BF7168EFF31087B8
:1017900072B60A68002AFCD0BFF35F8FDAB29446B3
:1017A0003068427B62451DD0FF221A4051008946B5
:1017B00001689144884649464144033989780029A3
:1017C00013D0F1681B0A88464244013A1278DBB212
:1017D0009A420FD07368BFF35F8F00221A6087F3BD
:1017E0001088B2E7FF221A40EBE732699342F1D149
:1017F0003161EFE7614600F01FFBEBE70040054079
:101800006412002061110010F0B5EFF30582D64696
:101810004F4646461000C0B51038EFF3108872B638
:10182000214C2368002BFCD0BFF35F8F01231900EC
:1018300081401E4D1F006963AA461D4D29601D4D44
:101840002E78AC463500C5402F402B4209D1BFF35E
:101850005F8F276088F31088E0BCBA46B146A8467F
:10186000F0BD5346144D5F6A83005D59AF420ED3FD
:10187000124A8E439B5862461670BFF35F8F002258
:10188000226088F31088002BE6D09847E4E70C4BE1
:1018900092009C46624413681360BFF35F8F00237D
:1018A000236088F31088D7E7280100D00040054066
:1018B0003C70054041290020102900201023002001
:1018C000D03F054010B50100024A0348FFF7A8F8D1
:1018D00010BDC046D45D00103C290020034B596A5E
:1018E0000A00986A596A8A42FAD170470040054056
:1018F00070B504000D00124A536A1900966A536AC3
:101900008B42FAD13000190024184D41AB4211D856
:101910000ED02B000A494A6A9A42FCD307D1084AE2
:1019200002E0516A994202D1916AA142F9D370BD95
:10193000A642EED9012301246442E5175B42E9E7A0
:1019400000400540064A536A9942FCD807D1044B2F
:1019500002E05A6A914202D19A6A8242F9D37047F0
:101960000040054070B504000D00EFF3108672B61C
:101970001A4A1368002BFCD0BFF35F8F002D1BD0D9
:101980002000FFF717F9164981420AD02000FFF71F
:1019900019F901212000FFF7DDF80123A340114AC6
:1019A0001360114BA400E550BFF35F8F00220B4B77
:1019B0001A6086F3108870BD0B4BA200D55001222F
:1019C000A2400A4920000B7893430B700449FFF7AB
:1019D00017FA00212000FFF7BDF8E5E7280100D045
:1019E000091800103860054010230020412900200C
:1019F000F0B54F46D6464646C0B507002C4C616A46
:101A00000D00A66A616AA942FAD18B4208D805D0B6
:101A10000120E0BCBA46B146A846F0BDB242F7D9B3
:101A2000EFF3108A72B6234801680029FCD0BFF397
:101A30005F8F0125BD4020491D4C884609788946A5
:101A40002943C9B28C46414660460870391D1B487F
:101A5000890065630A51B9000B50216A00202942B0
:101A600019D0616A0800A66A616A8142FAD18B4284
:101A700019D801D1B24216D8CC4516D00C4B1F2034
:101A80001D625D6301230740BB400D4A1E38136091
:101A900043464A461A70BFF35F8F0022054B1A6017
:101AA0008AF31088B5E70020F5E70120F3E7C04688
:101AB00000400540280100D04129002010290020C5
:101AC00080E200E0EFF3108C72B60A490B68002B3D
:101AD000FCD0BFF35F8F01238340074A074813629E
:101AE00002789A430270BFF35F8F00230B608CF380
:101AF00010887047280100D000400540412900208F
:101B000070B5050014001600002915D00C00002A3D
:101B100012D080686B689847296800280ED073003F
:101B20009B196200033B1219CB18033A9C7088186A
:101B30008A5C002A15D10670200070BD63001B1955
:101B40007200033B9219CB18033A9E7088188A5C86
:101B5000002A02D104703400EEE75A700470340099
:101B6000EAE75A700670E7E730B583600023CCB22D
:101B700043730133047342608373C4730D000068C0
:101B8000012C06D9421C0133DBB2137003329C4294
:101B9000F9D1FF2129404B00591800234018033880
:101BA000437030BDF8B5CE46474606000C0080B500
:101BB000002907D04D0003686D18033D5A19577866
:101BC000002F04D12000C0BCB946B046F8BD790052
:101BD000C919033988464344597889460021597008
:101BE000517073683A002100806898473368002874
:101BF00014D042469A18947059195B5D002B00D09E
:101C000053700F70270049463000FFF7CBFF3900B3
:101C100002003000FFF774FF0400D3E7424641465C
:101C20005D19AF709A185B5C002B00D06B7014705C
:101C3000E9E7C046F0B557464546DE464E46E0B5B4
:101C40000D006B0001685B19DF1E0400C85D83B0E6
:101C50000192CA19002850D043001B18033BCB182F
:101C60005E78B446002E1AD1019E002E42D0E67B4B
:101C7000002E04D073009B19CB18033B5D70A37B2F
:101C8000002B00D1A573E57300282FD100235370DA
:101C900003B0F0BCBB46B246A946A046F0BD7200F8
:101CA0006244033A89184A78904600224A70914665
:101CB0005A70010032002000FFF722FF434682469F
:101CC000002B07D05B0021684344033BCB185A78B4
:101CD000002A16D1424651462000FFF711FF216825
:101CE000019BCA19002BC2D10028CFD043001B187A
:101CF000033BCB1800219970C8E7019B002BB6D19C
:101D0000C4E75000801803380918487883464846CD
:101D10004870587041462000FFF7F2FE5946804651
:101D20002000FFF73FFF414602002000FFF7E8FEDA
:101D30008046CFE7F0B557464546DE464E46E0B50D
:101D400083B00191457B04006B0000685B19DF1EC6
:101D5000C15DC219002952D04B005B18033BC31868
:101D60005E78B446002E1CD1019E002E44D0E67B46
:101D7000002E04D073009B19C318033B5D70A37B36
:101D8000002B00D1A573E573002931D10023280071
:101D90005370617303B0F0BCBB46B246A946A0467F
:101DA000F0BD72006244033A8018427890460022E7
:101DB000427091465A7020003200FFF7A1FE434660
:101DC0008246002B07D05B0021684344033BCB18BD
:101DD0005A78002A17D1424651462000FFF790FE5C
:101DE000019B01002068C219002BC0D10029CDD071
:101DF0004B005B18033BC31800209870C6E7019B9B
:101E0000002BB4D1C2E75000801803380918487875
:101E1000834648464870587041462000FFF770FEE0
:101E2000594680462000FFF7BDFE414602002000D3
:101E3000FFF766FE8046CEE770B5040000292CD07F
:101E4000437B8B422ED00568480040180338281881
:101E50008278002A21D053009B18033BEA5CEE18DD
:101E60008A4202D11BE0002A08D053009B18033B92
:101E7000EB185A788A42F6D142785A700023012230
:101E8000837043702000FFF7D5FE617B02002000C5
:101E9000FFF736FE6073012000E0002070BD43783C
:101EA0003370EBE701221900FFF7C4FE60730120D5
:101EB000F4E7C046F8B5CE464746040080B5062094
:101EC0000E0000F023FA051E51D0524B5249E21881
:101ED00053425A418023DB039C4692054F4B624498
:101EE0001A604F4B1A6010008B689843FBD1494B26
:101EF0008021E3185A4253414A4A5B0049009952F3
:101F0000062000F003FA3100C00000F0CDFBC30949
:101F100032D14022012190466162A362256BEB071A
:101F200036D427008026E36A00232C3776013E430F
:101F300033600620256300F0E9F94146800000F097
:101F4000B3FB236B05009846DB073BD46022E36AB2
:101F50005A406E231340336043462363802310228C
:101F60009B013B431A60304B23630323A364280087
:101F7000C0BCB946B046F8BD2C4A93423FD90023B5
:101F80002B492C4A6162A362256B9046EB07C8D5AA
:101F90002200C02330329B011343234A06201A60DB
:101FA000666AA26AB601B61800F0B0F9224900F0DC
:101FB0007BFBB6020100300000F076FB0021FFF74A
:101FC00097FCAEE72200C02330329B011343164A30
:101FD00006201A60636AA26A9B019946914400F048
:101FE00095F94B4614499B02994600F05DFB0100B0
:101FF000484600F059FB0021FFF77AFCA6E77F2254
:1020000099018846104001304008190080440300BF
:1020100082E7C0460080FCBF00C0004000E00040F6
:1020200000F000402029002001030000FEFF000016
:10203000FFFF0000C0FF3F004E0E000030B50C2037
:1020400083B000F0B9F9FEF7E3FC00280ED0994BFD
:10205000994A1A605A609A60DA601A615A619A6104
:10206000DA611A62954A5A6203B030BD944CA06797
:1020700000F0F6F90122934B1A60636C012BFCD13E
:102080000322914B1A608E4A936B012BFCD10133D2
:1020900001218E4A8E480093043300F03DF9052358
:1020A0008C4A009301218C4800F036F98B4B5A681A
:1020B000FF2A02D8802252005A6080227D4C824B37
:1020C00021691201854D1A60002907D0606900F06E
:1020D000EBFA431C5800C0180338FDD2E0217F4BB7
:1020E00002201A681140802252012A4311601968A7
:1020F000484003210140116004219A681142FCD03C
:102100008022802192012A4309011160802252001D
:102110005A60734B2361734B5968FF2900D85A608A
:102120000321684A6F4B116002399A681142FCD052
:10213000E0201A681040802252011A43106018688B
:102140004840032101400220116066498A6810421C
:10215000FCD0802292011343802212011A60802257
:10216000614B52004A606361604B5968FF2900D897
:102170005A6080225E4BE16912015C4D1A600029B1
:1021800007D0606900F090FA431C5800C01803386B
:10219000FDD2E02255490B681A4080235B012B4396
:1021A0001A60802380229B012B4312011A60802237
:1021B000414B52004A60E3614E4B5968FF2900D8F9
:1021C0005A6080224C4B216A12014A4D1A60002944
:1021D00007D0606900F068FA431C5800C018033843
:1021E000FDD2E02243490B681A4080235B012B4358
:1021F0001A60802380229B012B4312011A608023E6
:1022000080225B004B602C4BD20223623B4B59680F
:10221000914200D25A608022394B616A1201374DD7
:102220001A60002907D0606900F03EFA431C58008C
:10223000C0180338FDD2E02230490B681A408023D1
:102240005B012B431A60802380229B012B431201E8
:102250001A608023DB024B60184B6362294B5A687B
:10226000FF2A02D8802252005A608022264BA169A0
:102270001201244D1A60002907D0606900F014FA99
:10228000431C5800C0180338FDD2E0221D490B68DA
:102290001A4080235B012B431A60802380229B011C
:1022A0002B4312011A6080235B004B600E4BA3612D
:1022B000DAE6C04634240020006CDC021BB70000C4
:1022C000008000403CB0004030B00040002F685912
:1022D00000800240008C864700C0024030800040F1
:1022E000001BB7003C8000404059730754800040F9
:1022F00054B000406080004060B000406C800040FE
:102300006CB000404880004048B00040014B800065
:10231000C058704734240020F8B5040021481D003F
:1023200017000E0000F0C0F90100380000F0BCF901
:10233000069B29041B0319432368002B20DB1A4B3F
:102340001A4DE21853425A4180235B019C46120306
:10235000174B62441A60174B1A601700AB689F4313
:10236000FBD1C022231D92011A4321232660A060C5
:1023700013602368002BFCDA0823E1601360F8BDCA
:102380003F2322681340B342D9D1A3681B051B0D1C
:102390008342D4D1EE22E368D20213408B42CED1E5
:1023A000EDE7C046001BB7000040FDBF00C0004085
:1023B00000E0004000F000408023024A9B000343FD
:1023C000D36270470080054010B5140080221B4B7B
:1023D000D2051A6000281AD00123194A1843194B54
:1023E000DA61194A42401A62596298628022134B9C
:1023F000D2051A601549164A1160E022D2041A600B
:10240000002C07D18022134B12061A6010BD0D4B11
:10241000D861EBE763011B1B9A008023121912019C
:102420005B049A4200D30C4A0C4B1A60054B5A606D
:102430008022084BD2051A60E8E7C04600B005408C
:10244000D3C007B0008005402D3FF84FFCFF0100CE
:102450000820014000A00540FFFFFF00D828002011
:10246000AA23064A1B0113602F230549D360054B9D
:1024700019605368002BFCDA7047C04600400240E8
:1024800000B0FA00006002402C4B2D4A70B51A6073
:102490002C4A2D4B2D491A6014008B689C43FBD1AC
:1024A0002B4D2C4EB54208D2013E761BB60808CD06
:1024B000984723000134B342F9D1FFF7BFFD264A04
:1024C000214B1A60214A9368DB43DB01DD09002BB5
:1024D000F9D14022214B224C224E9A675A671A6743
:1024E000DA66B44208D223682000002B20D00834DA
:1024F000FEF7F4FDB442F6D31B4E1C4CC022A1687B
:10250000300000F0DDF9A660FEF7FAFAFEF7AAFD4A
:10251000FEF79CFF164C174EB44208D2013E361B04
:10252000B60808CC98472B0001359E42F9D170BD02
:102530000834FEF7C5FDB442D5D3DDE700E0004026
:10254000BFCDFBFEFE7F3C0000F0004000C000401D
:10255000581B0020681B0020FFFFFF0100F0014016
:10256000501B0020581B00200000002000ED00E060
:10257000681B0020701B002000BEFDE7094A030015
:102580001068002805D00849C3188B4207D813608B
:10259000704706480449C31810608B42F7D90120E0
:1025A0004042F5E7D0240020000004204429002008
:1025B00010B5FFF7E1FFC0460FB400B5084883B07F
:1025C00000F0B0FA049B002B07D005A91800019178
:1025D00000F018F8034800F0A5FA0120FFF7CCFF3F
:1025E000F85D0010085E001010B50148FFF7E4FF29
:1025F0000C5E001010B5002800D110BD00F046FAA6
:10260000FBE7C04610B5094A0300146884B0002CEB
:1026100008D0012200910648524203A9A047012098
:1026200004B010BD00F07EFA0020F9E7D4280020A5
:10263000F525001001480421014B18479012002095
:1026400065260010142310B50100188804331B8878
:10265000984710BD162310B50100188802331B8857
:10266000984710BDF8B54746CE4680B50F1E19D025
:1026700014239946043304000025012698464B464E
:102680001888434621681B88984701C4431E984117
:10269000013540420640AF42F1D13000C0BCB946DE
:1026A000B046F8BD0126F8E7114A936F9B0813D294
:1026B00010665166002905D0FFE7FFE7FFE7516F7D
:1026C000106F704704B5002801D00020C04303F00C
:1026D00007FA002104BDC046F0B5146E556E576F61
:1026E000166FFFF7E5FF1466556657671667F0BD6E
:1026F000000000D0132370B51D78012D15D010DD1A
:102700001C48FFF7A7FF1C4C01008022200000F0AE
:10271000D7F8022D06D01948FFF794FF184B186020
:1027200070BD154C174BA364F5E7164B124C236094
:102730006360A360E36023616361A361E36123627B
:102740006362A362E36223636363A363E36323645B
:102750006364A364E36423656365A365E36523663B
:102760006366A366E36623676367A367E367A3649F
:10277000D1E7C04653440000781C00204C330000D1
:10278000002900208927001007B5604601880A0A41
:102790000230DF2AFAD1C9B2820804D30288408805
:1027A0000004104300E00068014A5050039007BD48
:1027B000781C002051434343C9188C46110C83B246
:1027C0004B4310B4040C614392B280B25043624355
:1027D0001C041B0C001910BC59411304120CC01826
:1027E0005141614470470000132310B512481C7812
:1027F000FFF730FF0100012C0AD003DD80220F48D3
:1028000000F05EF80E48FFF71DFF0E4B186010BD7C
:102810000A4C5422200000F053F80B4B6365A3656B
:10282000E36523666366A366E36623676367A3675E
:10283000E3672362E361E5E753460000781D00206B
:102840004C330000002900204D28001007B56046D9
:1028500001880A0A0230DF2AFAD1C9B2820804D3F9
:10286000028840880004104300E00068014A50508C
:10287000039007BD781D002010B5040002F0CCFCC9
:10288000002804D0034B04199C4200D810BD024814
:10289000FFF792FE00000420185E001010B502F051
:1028A000C5FC10BD01480421014B1847A0120020AF
:1028B00065260010014B1B6818470000A01200207D
:1028C000014B5B6818470000A0120020030010B500
:1028D000080011001B68984710BDC046F0B5464679
:1028E0004F46D646C0B5437D80460E001700002BEC
:1028F00046D0002A3FDD4B1E9946244B012500247B
:1029000000209A460DE04B461B5D0D3B5A42534159
:10291000325DDBB20A2A0BD02B00013401359F4215
:102920001ADD002CEFD14346325D1B7D0A2AF3D11C
:10293000002BF1D1A04204DA4346211A1B6830185B
:102940009847434650461B680221984701342800A7
:102950002B0001359F42E4DC874204DD4346391AEF
:102960001B6830189847F619013E33780D3B5A42E0
:10297000534142461375E0BCBA46B146A846F0BD85
:102980000368110030009847F5E7C0468C5E0010E0
:10299000F0B5DE4657464E464546E0B585B01700D1
:1029A0001C0006000D00FEF799FF0023304A1218A4
:1029B0004B41002B58DB2F4908008A4603F0A8F84A
:1029C00001906B1C03D1300002F00AFF0500002CBF
:1029D00025D1294B9846294B1C68002C15D0002F77
:1029E00020D1274F02E02469002C0ED02368002B51
:1029F000F9D03B68002B01D0A342F4D120002A007B
:102A00003100C0472469002CF0D1019B002B27D155
:102A100005B0F0BCBB46B246A946A046F0BD194B76
:102A20009846D8E7164B994602ABDF1D0A239B4612
:102A300002E02469002CE8D02368002BF9D04B4633
:102A40001B68002B01D0A342F3D12A0031002000E3
:102A5000C0475B460122390020003B70C047E8E7D1
:102A6000504603F02DF8D3E70122074B5242A2E76C
:102A700040420F00501B0020DD280010C42400201D
:102A8000CC240020CD280010FFFFFF7FF0B5CE46FC
:102A9000474680B583B06B460600DD1D2870FEF703
:102AA0001DFF00231A4A12184B41002B2BDB19493A
:102AB0000800884603F02CF8174B81461C68002C50
:102AC00014D0164F02E02469002C0FD02368002B8D
:102AD000F9D03B68002B01D0A342F4D120000122A1
:102AE0002900FFF7FBFE2469002CEFD14B46002B99
:102AF00005D1300003B0C0BCB946B046F0BD404679
:102B000002F0DEFFF5E70122054B5242CFE7C04657
:102B100040420F00501B0020C4240020CC24002081
:102B2000FFFFFF7F70B5040002F05AFE0023010092
:102B3000050001222000FFF72BFF084B1C68002C2A
:102B400006D06368002B05D098472469002CF8D183
:102B5000280070BD2469002CF3D1F9E7C4240020BB
:102B60000A4A1368002B05D10CE01A001B691032C9
:102B7000002B07D09842F8D1002902D103691360D5
:102B8000016170470029FCD01060FAE7C4240020DE
:102B900010B500F0C7F800F0C1FA012010BDC04622
:102BA000F0B50D1E15DD0E4B0D271A680D4B45199E
:102BB000D31859424B410C495B005E5E20210478DA
:102BC000A64207D093691942FCD101301460A84293
:102BD000F5D1F0BD93691942FCD11760F2E7C04608
:102BE000242900200080FCBF2029002030B50400EB
:102BF0000D1E26DD002010211B4B013C1A68936935
:102C0000194219D1013093691942FCD11368235438
:102C10008542F4D1154B1B68002B0CD050239363D5
:102C2000516B183B34320B401100802252010A4391
:102C30001360002815D030BD0C4B1B68002BEDD164
:102C4000F7E70A4B1B68002B0BD050223821064BAC
:102C50001B689A635A6B343311408022520113432C
:102C6000196003204042E6E72429002020240020A8
:102C7000064B10B51B68002B06D00021044A1268D1
:102C80009163044A1068984710BDC0462024002074
:102C900024290020282400201D4BF0B51A68C646C0
:102CA00098461C4B0E00D31859424B411A4F14330F
:102CB0001C00050000B53B68002807D0002B11D090
:102CC000164B3D601E6080BCB846F0BD002BF7D0AF
:102CD000906300212000FDF73DFF20001049FEF722
:102CE0008FF8EDE720000E49FDF76CFF0121200071
:102CF000FDF730FF4346502238211B689A635A6B18
:102D0000343311408022520113431960D8E7C04682
:102D1000242900200080FCBF20240020282400203B
:102D2000712C00100C4B10B51B780C4B0C4C1B7805
:102D30000C4B022100202360FDF73AFE0221012006
:102D4000FDF736FEE12120684902FFF7B3F80121C3
:102D50000548FFF705FF10BDE0610010E4610010B9
:102D60002429002000400340B01200207047C046D4
:102D70000022014B1A7070473E2900204B79002039
:102D8000FF2B0BD18B79002B08D1CB79012B05D1EF
:102D9000082A03D98A78024B09301A707047C04656
:102DA0003E2900200120704770B5012909D115493D
:102DB0005379107909781B0203430020994202D00D
:102DC00070BD0120FCE75378012B08D0022BF7D10E
:102DD000002064220021FFF7F7FA0120F0E7947841
:102DE000D278050012021443D20502D5620A93403C
:102DF0001D000548FFF726FC7F2103002140280025
:102E00009847C0463E290020554200000123037028
:102E100000487047D05E001048780B788A7800022E
:102E20001843120410439622CB7810B51B060343B7
:102E3000D200934200D010BD0348FFF703FC0021ED
:102E4000030008009847C04655420000024B186036
:102E5000024B19607047C046242400202C24002017
:102E600010B5024B1878FDF787FE10BD3F290020F2
:102E7000114B70B51A68002A1AD0EFF3108172B6A0
:102E800010680028FCD0BFF35F8F00220B48596008
:102E900002701B68BFF35F8F1A6081F310880024F3
:102EA0000025074B1878FDF767FE2900200070BD4C
:102EB000FA240025A400F4E7E0280020402900209F
:102EC0003F29002070B5040000200E0001F002FB35
:102ED000002835D0002001F015FB002830D0FEF787
:102EE000FDFC0023184A12184B41002B24DB174D20
:102EF000280002F00DFE002822D0002001F0EAFA9E
:102F000000280BD1012000210324404200F0CCFC1A
:102F10006442280002F0D4FD200070BD002001F0C2
:102F2000F1FA0028EED021003200002001F0F6FA7C
:102F3000041EEED1033CECE70122054B5242D6E7DA
:102F400003246442E8E7C04640420F0008290020FD
:102F5000FFFFFF7FF8B5DE46574680B505000C0041
:102F6000FEF7BCFC0023364A12184B41002B5ADBFB
:102F7000344908008A4602F0CBFD002803D1C0BCCA
:102F8000BB46B246F8BD002001F0A4FA00284ED09E
:102F90000026002C43DD2C4B9B4614E0A919002091
:102FA00001F030FB070001200021404200F07CFCD2
:102FB000002001F0EBFAFEF791FC234BF6191860A4
:102FC0005960B4422BDD002001F036FBA71B020044
:102FD000B84200DD3A00002AE0D101200021404241
:102FE00000F062FC002001F0D1FA002001F072FA3A
:102FF000002814D0002001F01FFB0028E1D1FEF7CB
:103000006DFC5B460F001A685B68002184460F4820
:1030100012184B419F4202D8D3D19445D1D9504682
:1030200002F04EFDABE70122094B5242A0E700201F
:103030000021054B18605960504602F041FD9EE7A3
:1030400040420F0008290020701C002020A107002A
:10305000FFFFFF7F10B5244C84B00021200002F058
:1030600047FD00281CD1214B1A68002A16D0EFF327
:10307000108172B610680028FCD0BFF35F8F012466
:103080001B48596002781B68D2B20470BFF35F8F8F
:103090000020186081F31088002A0AD004B010BD07
:1030A00001200021404200F0FFFB200002F008FD5B
:1030B000F4E7FEF701FA0400FEF710FCFA22002301
:1030C000920012184B41002B09DB012102910021D3
:1030D0000191084920000091FEF7F2F9DEE7012294
:1030E000054B5242F1E7C04608290020E0280020A5
:1030F00040290020712E0010FFFFFF7F054B10B507
:103100001868002804D0044B0022196801F044F824
:1031100010BDC046242400202C240020D02310B54C
:103120001B0684B01C68FEF7C7F9FEF785FAA042BB
:1031300002D0002004B010BD264B1B7801F066FCC5
:103140002548FDF7BDFF0120FDF79EFFFF23234C1F
:10315000234920701840FDF735FD20780121FDF747
:10316000F9FC0520FDF710FD002822D1FEF7A4F997
:103170000400FEF7B3FBFA220023920012184B4121
:10318000002B22DB01210291002101911549200031
:103190000091FEF795F90822040000211248FFF77C
:1031A00089FB002CC5DB11480121FFF7D9FC012068
:1031B000C0E700220E490520FDF72EFDFDF7AEFC0D
:1031C00001000948FDF7A8FFEDE70122094B524233
:1031D000D8E7C046E8610010082900203F290020F8
:1031E00055300010712E0010E0280020C812002079
:1031F000612E0010FFFFFF7F00487047885F0010BE
:1032000000487047345F001070B504001748037819
:10321000002B21D0002C06D1C1241548154BA40049
:103220004380048070BD052C1DD8134B1048A400AA
:10323000E558811C002304E001330A800231132B7E
:103240000ED0EA5CDCB2002AF6D1C0230134E4B22D
:1032500064009B001C43E4E7112100F017F8D9E754
:10326000CA24A400DDE70020DCE7C04628290020AE
:103270009C240020090400009C5F001010B5024847
:1032800000F0D8F810BDC046F828002030B54B1E1D
:10329000012900D1A7E0664A11780D112C003034C5
:1032A0009F2900D9A2E00470012B00D1BEE00F21BC
:1032B000147821400C003034092900DD98E0447076
:1032C000022B00D1B2E054782511290030319F2C17
:1032D00000D990E08170032B00D1A7E00F2121409D
:1032E0000C003034092900DD87E0C470042B00D1C4
:1032F0009CE094782511290030319F2C00D97FE083
:103300000171052B00D191E00F2121400C003034D8
:10331000092900DD76E04471062B00D186E0D478DF
:103320002511290030319F2C00D96EE08171072BC7
:1033300000D17BE00F2121400C003034092966DCEC
:10334000C471082B00D171E01479251129003031A6
:103350009F2C5FD80172092B68D00F2121400C00EF
:103360003034092958DC44720A2B5FD05479251176
:10337000290030319F2C52D881720B2B56D00F214F
:1033800021400C00303409294BDCC4720C2B4DD089
:1033900094792511290030319F2C00D90731017310
:1033A0000D2B43D00F2121400C003034092901DDC1
:1033B00037310C0044730E2B38D0D1790C11220018
:1033C00030329F2900D9073282730F2B2ED00F2263
:1033D0000A4011003731092A01DC30321100C17373
:1033E000102B23D010300023037030BD07345AE770
:1033F00037310C0063E707316CE737310C0074E7B5
:1034000007317DE737310C0085E707318EE737312B
:103410000C0095E707319DE737310C00A3E7073132
:10342000AAE737310C00C4720C2BB1D1C018DAE70F
:10343000F828002030B5002589B0040009220021B9
:1034400001A80095FFF736FA0922002105A8049586
:10345000FFF730FA4B236A466846137004A90D2221
:1034600002F026FB1521082220006944FFF728FA04
:1034700009B030BD10B501210520FDF76BFB10BD73
:1034800010B500220021024800F05AF910BDC046D4
:10349000F42400208022024B5202DA647047C046B6
:1034A00000201150F0B5C64600B5060000F022F924
:1034B0000C231B4DFF22AB6705201A49FDF7ACFB1F
:1034C00040239846184C402200212000FFF7F2F9D3
:1034D00043460127238321210023144A6770A260F9
:1034E000136063545F316184414621870539635419
:1034F0000F4A10496360E260A1620B606362E2629E
:1035000002F026FB80239B052F64EB6490230A4A7C
:103510003000EA50FFF7BEFF80BCB846F0BDC046A1
:1035200000001150F9040020D42400208400105021
:10353000000110508000105010D001000B785B0685
:1035400002D14B78052B00D070478A78014B1A6066
:10355000FAE7C04600001150F0B5C64600B54B79F9
:103560000C791B0288782343CC787F21A407014083
:10357000C509A20F4F001400324E7A195201B21839
:10358000907001206840507000205B055B0DD0708A
:103590001383D4768046CA00012D33D02A4884464E
:1035A000880162448446B4446046826040461060AC
:1035B000002933D0254AC9009046624641445160F3
:1035C0003F223F339343022C00D15B0020487A19FD
:1035D00001685201B218D1601E4ACB1803605140F5
:1035E0005340802288465201934228D84346A4067D
:1035F0001C4380237F197F011B06F6191C43736847
:103600001C6011E014488446880162448446B44436
:103610006046826240461060002909D100236D0196
:10362000761973600D4BF360012080BCB846F0BD85
:10363000084AC9009046624641445162C0E7FEF71D
:10364000D3FFD3E7D424002084001050040010508E
:10365000DC280020000010508000105000011050A5
:1036600010B502F075FA10BD10B57F200C00204097
:103670004000E409110000191A00034B4001C01872
:1036800000F05EF8012010BDD42400207F2213003A
:1036900010B50B400A420BD0C909802258004018CF
:1036A0000649400140181201002102F049FA10BDFC
:1036B00002220348C909521A8266EEE7D424002088
:1036C000002011507F22100010B508400A4200D19E
:1036D00010BD0023C90940004018044940010818E2
:1036E00000220349C37002F02BFAF1E7D424002032
:1036F000FFF7FFFF80220D4B520410B51A600C4BF0
:103700000C491A6010008B689843FBD10A4C9C222C
:1037100000212000FFF7CEF8802200215201074847
:10372000FFF7C8F80923636710BDC04600E00040FA
:1037300000F0004000C00040000011500000105098
:1037400070B5837E04000D001600002B17D10023F6
:10375000E38201332000A682A376256102F0B8F946
:10376000002804D080219023084A8902D1502000EB
:1037700002F096F9002805D00123237770BD02F0EE
:10378000D7F9E4E7200002F0CBF9F7E70020115069
:10379000024B5878431E9841C0B27047F421002074
:1037A000024B18784007C00F7047C046F421002034
:1037B000034B1878FF38431E9841C0B27047C0468B
:1037C00004130020F8B5CE46474680B52C4E0500C0
:1037D00033780120FF2B03D0C0BCB946B046F8BDFA
:1037E000532200212748FFF765F8274C2000FDF7FA
:1037F00067FC264B1C60264C20001430FDF77CFC37
:10380000200001F0D1FB234B234F1C60234B984633
:10381000002B04D03800FFF7F9FA214B186042461C
:1038200000243B78002A23D01E4A90461C4A914629
:10383000A34212D80FD14346984701343B78E4B2F3
:10384000A342F5D228003570FFF72CFE2800FFF7C1
:1038500011FE0120C0E70020BEE74A46126863005F
:1038600094461B19DB006344002BF4D01B68E3E78C
:1038700000F0EEFE3B780020002BADD1E2E7C04621
:1038800004130020F4210020AC2100204822002055
:10389000E81200204C220020392900200D2E0010B3
:1038A000CC1E002051460010F0B5DE4657464E466D
:1038B0004546E0B58BB001F0AFF8002800D10FE12C
:1038C000C74BC84D9946C84B07AC9B462E687269DA
:1038D000EFF3108172B61368002BFCD0BFF35F8F3B
:1038E000B1613000210001F0A1F97269B369BFF341
:1038F0005F8F0021116083F31088002800D1EFE072
:103900006378082BE2D84A469B00D3589F466368E9
:10391000002BDBD0A0689847D8E77F222179B24EF0
:103920000A405000CB093618F61830000127303015
:10393000C378BB43C370C3780337BB43C370002A4B
:1039400000D1F2E0A94AF37C002A06D0A84A1278F6
:10395000934200D260E19B1ADBB2002B00D0BFE0A3
:10396000A44E62792078A368B047AFE75B46012296
:103970001B78012113435A46137033235846D25CF7
:103980005E468A43C254C25C04208243F25401332F
:10399000F25C8A43F254F25C8243F25423780020B2
:1039A0009A4600F005FD602223791A40602A0DD066
:1039B000402A00D1BFE0DB06DB0E012B00D136E14F
:1039C000022B00D1D4E0002B00D1C3E020780021ED
:1039D000FFF75CFE80212078FFF758FE76E7824EE5
:1039E0003378DB0700D471E7834B002B00D16DE700
:1039F00000E000BF6AE77C4E3378DB0700D465E760
:103A00007E4B002B00D161E730780007C00F00E04B
:103A100000BF5BE7764B754A9846002627781B78EF
:103A2000002A00D179E0764A92469E425FD319D1AE
:103A3000744B38009847434601361B78F6B2B342C0
:103A4000F3D2694E532200213000FEF733FF1022DB
:103A5000FF21F01CFEF72EFF30002022FF21133043
:103A6000FEF728FF00F09AFC674B002B00D12DE7F2
:103A700000E000BF2AE75E4B5C4A984600262778A4
:103A80001B78002A1FD05E4A92469E423AD321D12B
:103A90005C4B38009847434601361B78F6B2B34278
:103AA000F3D2514E532200213000FEF703FF1022C3
:103AB000FF21F01CFEF7FEFE30002022FF21133014
:103AC000FEF7F8FE07E0380000F000FE43461B78E2
:103AD000002BE6D0444E00F061FC2379B370F5E68C
:103AE0000BB0F0BCBB46B246A946A046F0BD52465C
:103AF0001268730094469B19DB006344002BB1D01D
:103B00005B6896E752461268730094469B19DB0087
:103B10006344002BDED05B68BBE7380000F0D6FDC5
:103B200043461B78002B9DD18BE762792078A368F0
:103B300000F052FCCAE63548002800D146E700F004
:103B400037FC0121504608AA00E000BF002800D041
:103B5000BCE63BE7202A00D19EE0002A00D035E7F2
:103B60006379092B00D931E7294A9B00D3589F4636
:103B70007023217A0B4200D028E758460F330B40C0
:103B80005B00CE09C018194F8019C07C002F06D0E9
:103B9000174F3F78B84200D2A0E0C01BC0B2002847
:103BA00000D096E0002A00D047E11A4F0220627947
:103BB00090468243012A00D142E14246002A00D0C9
:103BC00004E75B449E193036F37806AA9B07DB0FA7
:103BD000023213805046022308A900F081FB75E6EB
:103BE000146000104C220020F42100200D2E001043
:103BF00039290020C5480010000000000000000026
:103C0000CC1E0020CD460010000000000000000087
:103C100038600010A06000105A00D318B14ADB00D1
:103C20001268D318002B00D15AE71E6999E6237A4F
:103C30000F2B00D9CAE6AC4A5B44DB78002A05D0DA
:103C4000AA4A127893425ED39B1ADBB2002B00D0B3
:103C5000BCE6A748A74E00F0ABFB01215046F36835
:103C600008AA9847002800D030E660221600237981
:103C70001E401A4200D0A9E663790A3B012B00D905
:103C8000A4E600F095FB63790A2B00D120E15046B1
:103C900008A900F00DFB19E6237A0F2B00D995E651
:103CA000914A5B44DB78002A06D0904A127893420E
:103CB00000D2E6E09B1ADBB2002B00D086E68C48EF
:103CC0008C4E00F075FB01215046F36808AA984716
:103CD0003CE70027002A00D168E777E6470038185C
:103CE000804FC0003F683F18002A00D15EE7002FD8
:103CF00000D16BE6F86800F05BFB01215046FB68E1
:103D000008AA984722E7774A5E00F3181668DB0096
:103D1000F618002E00D159E6F0689CE7A2790192CE
:103D200073789A4207D07378002B00D046E1019B4C
:103D3000002B00D0EAE05B46019A504608A95A7071
:103D400000F0B6FAC2E5737806AA02321370504644
:103D5000012308A900F0C4FAB8E5E088030AC0B25C
:103D60000F2B00D932E664499A008A58974608A872
:103D700000F024FB5046A179FFF782FB0222337842
:103D800013433370A2E5E388012B00D01EE608221E
:103D9000337893435A46137079E70220317806ABA3
:103DA0009A1C8B068908DB0F01400B4311E7E3885F
:103DB000012B00D00AE6082233781343EAE74F4B81
:103DC000002B00D102E600E000BF021E00D1FDE59D
:103DD000D37891781B020B43504608A900F080FA73
:103DE000B4E6474B002B00D1F0E500E000BF021E17
:103DF00000D1EBE55046137808A900F071FAA5E66A
:103E00002189FFF701FA021EF4D1DFE5022B00D170
:103E100012E13C4B002B00D1D8E500E000BF0200CE
:103E2000002A00D1D2E5D3E7FFF7E6F9122302001A
:103E300008A9504600F054FA88E62D482D4F5AE75D
:103E4000E288002A08D142465B449E193036F37856
:103E5000012A21D09B072ED5002F00D136E5F86826
:103E600000F0A6FAFB6808AA0121504698470020F6
:103E700000F09EFA34235A46D35CDB0700D525E5D3
:103E800005E7184A5E00F3181668DB00F618002EE6
:103E900000D19BE5F06814E79B07DDD51A4B187835
:103EA000FFF710FC0222F37893434246F370F37855
:103EB0009343F370D0E7144B1878FFF7E7FB022227
:103EC000F37813430122F370F3781343F370C3E7DD
:103ED00006AB9A1C5046012308A9167000F000FAA0
:103EE000F4E4C046CC1E00200D2E0010392900201D
:103EF000E1470010A06000106060001000000000AA
:103F0000000000000000000004130020581EC0B292
:103F1000FFF776F9002800D158E543780593022B86
:103F200000D053E50121C2790700931152110B40D3
:103F30000A4012015B0113435A4612782F318A431B
:103F400013435A461370C37882781B021343C31875
:103F500009370393039BBB4200D8ACE001227B7876
:103F600000920B2B03D1FB7800933B78FF187B78F2
:103F7000042B00D02AE50026039B584ADB1B9BB28A
:103F80000293574B04931B78B24263D0B846B342B6
:103F900056D800D01AE5534B534F41465046029A2B
:103FA0009847082803D9029A824200D38AE0049BEA
:103FB00001361B78F6B2B342E9D207E55046FFF767
:103FC0004FFBB378454A0093454B002698461B7833
:103FD000002A0DD0454FB34225D820D1444B50463E
:103FE0009847434601361B78F6B2B342F3D206E057
:103FF000504600F06BFB43461B78002B0FD1532239
:1040000000215846FEF756FC5B461022FF21D81CC3
:10401000FEF750FC2022FF213648FEF74BFC5B46A2
:10402000009A9A7083E618233A687343944663446F
:10403000002BF4D05B68D2E7FFF7E2F80200EFE66E
:104040002A4B1F6818237343FF18002F00D1BDE4CB
:10405000BB68A2E7029B39001A005046984600F060
:104060004BFB082800D8B1E44246824200D2ADE4BE
:104070001D4B9846009B012B28D000220AE0BB78FC
:10408000D318DBB25B44D978FF2900D09EE401321B
:10409000DE70D2B2009B9A42F1D18046330002001A
:1040A0003900144800F03CFD049B47441B78B342A0
:1040B00000D34FE78AE4104B002B00D13BE600E031
:1040C00000BF38E63B0047469846D3E74246054BDB
:1040D00092689A42D1D1059B0093CEE70D2E001035
:1040E00039290020F9460010A0600010CC1E0020E5
:1040F000CD4600100722002000000000F8B557460A
:104100004E46DE4645460C00E0B516001F00002A6C
:104110003CD0702398461E4B00259B461D4B9A466B
:104120001AE05B461B78200099465346997800F0C8
:10413000BBFC00281CD021004846FFF70DFA0028E0
:1041400016D0A378DA09012A19D00A9A013513701A
:104150002378E418B54219DA6378052B08D1E3789F
:104160009B079B0FBB4203D14246A3781A42D8D08B
:104170000020F0BCBB46B246A946A046F8BD0B9A4B
:10418000013513702378E418B542E5DB0120F0E730
:1041900004130020F4210020802310B51B0184B0FB
:1041A00001930E4B02901C6803916269EFF3108338
:1041B00072B611680029FCD0BFF35F8FA3612000A5
:1041C00001A900F0F9FD6269A369BFF35F8F0021C7
:1041D000116083F3108804B010BDC0464C2200204B
:1041E000702270B58B780C001A4201D0002070BD8F
:1041F000064B20001D78064B997800F055FC0028EE
:10420000F4D021002800FFF7A7F9F0E704130020FD
:10421000F4210020074B080019687F2310B50340E4
:10422000C0095B0033301818034B181800F0F8FB76
:1042300010BDC04648220020F4210020074B080092
:1042400019687F2310B50340C0095B00333018188C
:10425000034B181800F00CFC10BDC046482200208B
:10426000F42100207F2070B508400F4C4000CD099C
:10427000241864193034E5780020ED0700D570BDAE
:104280000126E578094835430078E570FFF7ECF939
:104290000028F4D10122E3789343E370E3780332FA
:1042A0009343E370EBE7C046F421002004130020A1
:1042B00070B50A4E0500300008220C00FEF700FB26
:1042C00000237F21F3602278B36091425B41280094
:1042D000D90100220023FFF7C5FF70BD98210020FF
:1042E000F8B5CE46474691462A4E80B508220700CB
:1042F00030000D009846FEF7E3FA4B46B36000230A
:10430000F381EC79A97924020C43231C444500D99C
:1043100043469AB29046B381002C13D0002A1FD096
:104320004B46002B34D0131C402A1FD89BB2984612
:1043300033787F2B20D80021174A43463800FFF7F7
:1043400091FF09E07F222B7838009A4264410023D4
:104350000022E101FFF786FFC0BCB946B046F8BDB8
:1043600033787F2B11D980210022E6E740239BB2CE
:10437000984633787F2BDED9074C424649462000C9
:10438000FEF79EFA80212200D7E700210022D4E721
:104390000020E1E798210020B421002010B514226C
:1043A00000210248FEF786FA10BDC0469821002081
:1043B000014B18617047C0469821002010B5054C8C
:1043C000010008222000FEF77BFA0023A360E360CF
:1043D00010BDC04698210020F8B53B4C1D00237845
:1043E0000600DA09C9098A4213D00020002D00D046
:1043F000F8BD364B002B03D021003000FFF79EF8AC
:104400002369002B44D0220003213000984701206B
:10441000EEE77F2B06D8A068002837D02A002C4969
:10442000FEF74EFAA368E28959195219E38892B24D
:10443000E281A160934214D03F2D12D9A589A81A18
:10444000071C80B240282FD82378BFB27F2B2DD8ED
:104450000021AA4235D01E4A3B003000FFF702FF80
:10446000C6E72369002B05D02200022130009847BF
:1044700000280FD07F220021237830009A42494142
:1044800000230022C901FFF7EDFEB1E70020AFE7EE
:104490000120ADE700213000FFF7F8F8300080215F
:1044A000FFF7F4F80120A3E74027CDE7AA4207D0A1
:1044B000074C3A002000FEF703FA80212200CBE7E8
:1044C00080210022C8E7C046982100203D35001019
:1044D000B421002010B50400FFF75AF9002801D1DB
:1044E000002010BDFFF75CF90028F9D1B220800050
:1044F000444303480019037901201840F1E7C046FE
:10450000D01E0020B2239B00584310B5024B103040
:10451000C01800F057FB10BDD01E0020F0B5B2252A
:10452000AD0045432C00C646174F1034E41900B5C2
:10453000200092B200F0CAFB0600200000F060FBF1
:104540003F2803D8300080BCB846F0BD7B1900205E
:10455000D9789846FFF75EFE0028F3D0200000F0DF
:104560004FFB3F280AD992239B00EA184346D219F1
:10457000D97800204023FFF775FEE3E7434600208B
:10458000D978FFF75BFEDDE7D01E0020F8B5040008
:10459000FFF7FEF8002801D10020F8BDFFF700F971
:1045A0000028F9D1B220800044432500144E243560
:1045B000AD19280000F006FB0028EDD037190020C7
:1045C000B978FFF727FE0028E6D0A2239B009C467F
:1045D0006444A41921002800402200F077FBB97838
:1045E000051E08D0030022000020FFF73BFE002834
:1045F000D2D02800D1E70020FFF720FECCE7C0464C
:10460000D01E002070B5B224A4004443094B2434CA
:10461000E418050092B2200000F012FC0600200011
:1046200000F0D0FA3F2801D8300070BD2800FFF715
:10463000ADFFF9E7D01E0020B2239B00584310B510
:10464000024B2430C01800F0DBFA10BDD01E002051
:10465000B222F0B51B4C83B0002120009200FEF77F
:1046600029F9FF236371184B80260025E380012779
:10467000082321002000760023733200278138317F
:104680000095073B103000F065FA21002000393119
:104690003200FF3101230097243000F05BFA8E23B3
:1046A0009B00E6183000FCF70BFD90239B00266270
:1046B000E6183000E561FCF703FD2663656303B08F
:1046C000F0BDC046D01E002000C2FFFF10B5094C4F
:1046D000052200212000FEF7EDF8200024341030E0
:1046E00000F062FC200000F05FFC0121200000F0DF
:1046F0007BFC10BDD01E0020F0B54B79060083B0C6
:10470000022B02D18B79022B03D00025280003B0A5
:10471000F0BD304FBB78002BF7D18B7809253B706B
:104720000C780C196378242B0BD1082A02D80FE0DF
:10473000AA420DD32378E418ED186378ADB2242B88
:10474000F6D0052B21D0042B02D163790A2B2FD070
:10475000214C200000F054FA3F28D7D92600103E03
:104760000020F178FFF756FD0028CFD0200000F0A0
:1047700047FA3F2817D98E239B00E218F93BF178BE
:10478000FF3B0020FFF76EFDC0E721003000FFF780
:1047900027FD0028B9D0A3787B702378ED18E418A2
:1047A0006378ADB2CFE7F1780020FFF747FDADE7C2
:1047B0000A4B277801930133009302220223300031
:1047C000E119FFF79BFC00289FD00E35ED19ADB223
:1047D000BEE7C046D01E0020E01E0020D21E0020F2
:1047E000F8B5602314001278050013400020202B38
:1047F00012D12F4A6379277916781B023B439E42D8
:104800000AD16378222B27D007D8202B17D0212B51
:1048100002D101293DD00120F8BD232BFCD1012973
:104820003FD00329F7D1234B002BF4D0E178A378B4
:1048300009020020194300E000BF0120ECE7012934
:1048400027D00329E7D11C4B002BE4D00020911D79
:10485000FEF7E2FA0120DFE7012922D00329DAD1AD
:1048600001252E00A378E478023924021C43147138
:10487000264024321000714000F0B6FB0F4B002B95
:10488000C9D06208002031002A4000E000BF0120AA
:10489000C2E7072321002800094AFFF721FD012074
:1048A000BAE721002800FFF703FD0120B4E7C04666
:1048B000D01E002000000000192E00100000000093
:1048C000D61E0020F8B557464E464546DE46E0B5B2
:1048D000494F8046FA780C001E008A4264D19AB291
:1048E00092239B00FD1810239B46BB442900584689
:1048F00000F0A6FA414BD946002B18D07B79D94657
:10490000FF2B14D0002E12D0AA19924603E00135D5
:1049100055450CD07B792A789A42F8D1484600F068
:1049200067F90028F3D1797900E000BFEFE7344B55
:10493000002B04D0484600F05BF9002852D04846CE
:1049400000F05EF93F2834D84A46103A9378A342E3
:1049500007D001242000F0BCBB46B246A946A046C1
:10496000F8BD284B002B02D0002000E000BF002043
:10497000FFF70CFE0028ECD1234D280000F022F9AF
:104980000028E6D1002EE4D0B306E2D1243D404613
:10499000A978FFF73FFC041EDBD00023002240462D
:1049A000A978FFF75FFCD5E7BB788B42D9D000240C
:1049B000D0E74D46103D0020E978FFF72BFC00289A
:1049C00001D1AB78C3E7484600F01AF93F280CD96B
:1049D0008E22920040230020E9784A44FFF742FCEF
:1049E000AB78B4E7FEF78AFBA9E70020E978FFF788
:1049F00025FCAB78ABE7C046D01E002000000000CD
:104A0000FD30001000000000F41E002010B5002052
:104A1000FEF7D8FE10BDC04610B5FEF7C9FE10BDAA
:104A2000037870B5DB0704000E00DD0F002B17D1F3
:104A300003785B0701D5280070BD01213000494291
:104A400001F05EF82378DB07DD0F002B0AD1237815
:104A50005B0708D40422237801251343237002E066
:104A60000025E8E70025300001F02AF8E3E7C0461A
:104A700070B50D00012104004942280001F040F802
:104A800023785B07DE0F002B04DB280001F018F809
:104A9000300070BD2378DB0704D4042223789343CD
:104AA0002370F2E70026F0E710B5437904791B0282
:104AB00023435B055A0DC3789B079B0F022B05D040
:104AC000032B15D00020012B08D010BD02291CD0CB
:104AD0000020402393424041C0B2F6E702394B42E6
:104AE00059410D4B9C46614491424041C0B2ECE7B4
:104AF00002394B425941F023002049429B001940A2
:104B0000403191424041C0B2DFE7044BD3185A42D2
:104B10005341D8B2D9E7C046FF03000000FEFFFFB3
:104B20008A1870B5914207D27F264C78052C04D0A4
:104B30000C7809198A42F8D870BD34008D782C4061
:104B400064000419ED0963550C7809198A42ECD800
:104B5000F2E7C046F0B5C64600B5040006A80578E1
:104B60008020884617001E000002824227D8E06895
:104B7000002803D00121494200F0C2FF206900282B
:104B800003D00121494200F0BBFF43462360730478
:104B90005B0CED031D430023E0686381A780E58083
:104BA0002381002801D000F08BFF20690124002818
:104BB00001D000F085FF200080BCB846F0BD002485
:104BC000F9E7C04610B5048941898288A3B288B24A
:104BD0008C4207D31B1A9BB2101C9A4200D9181C96
:104BE00080B210BD5100091A5B189BB2F4E7C046B1
:104BF000030000895B89C01A43425841C0B2704724
:104C000010B5048941898288A3B288B28C4207D347
:104C10001B1A9BB200209A4201D9D31A98B210BD38
:104C20005100091A5B189BB2F4E7C04670B5040046
:104C300000690E00002803D00121494200F060FF06
:104C400025896089A288A9B283B285422CD3CD1A66
:104C5000ADB2002D2ED0AA4208D2914231D38B1A88
:104C60009BB263819A4203D89B1A9BB29A42FBD9AA
:104C7000E28821685204520C53433000C918FDF7F2
:104C80001FFE618901254B1C9BB2A288994214D951
:104C9000002352009B1A9BB220696381002801D037
:104CA00000F00EFF280070BD5500ED1A4D19ADB291
:104CB000002DD0D1002563899BB252009342EBDBDB
:104CC000E8E789188BB26381CCE7C046F0B5464669
:104CD0004F46D646C0B50600006989469046002872
:104CE00003D00121494200F00BFF31897289B58858
:104CF0008BB294B2914257D31F1BBFB2002F4DD03D
:104D0000BD4205D2AB4254D25B199CB22F007481D4
:104D10004346B84540D89FB2A54203D8641BA4B20D
:104D2000A542FBD9F288281B5204530C190098465F
:104D3000336861439C4680B26144874226D943462A
:104D4000584383B21A0048469A46FDF7B9FD4346D8
:104D500048467D1B64195C4331685044A2B2FDF79C
:104D6000AFFD7189B588CB199BB26A00994217D9FA
:104D70009B1A9BB230697381002801D000F0A0FE1D
:104D80003800E0BCBA46B146A846F0BD42464846A7
:104D90007A43FDF795FDE4E73B1CBCE773899BB2C2
:104DA0006A009342E6DBE3E76F003F1BDF19BFB207
:104DB000A4E75B1B9CB2A9E7F8B50400C0680E002D
:104DC000002803D00121494200F09AFE258920895C
:104DD0006189A288ADB283B28FB2884228D3DB1B2F
:104DE0009BB29A4209D8E779FF0906D1E06800280A
:104DF00001D000F065FE3800F8BD2B00954203D3CA
:104E00009B1A9BB29342FBD2E28821685204520C57
:104E10005343C8183100FDF753FDA2886B1C9BB2A9
:104E200052009D4209D99B1A9BB201272381DDE7DD
:104E30005100C91B5B189BB2D3E79342F5DBF2E745
:104E4000F0B54E464546DE465746E0B58946050074
:104E5000140083B0002A6ED0C068002803D001215E
:104E6000494200F04DFE2F89EA796B89BFB29BB2AF
:104E7000D20942D1AE889F4267D27200D31AFB1882
:104E80009BB2002290469E4231D9F31A1A1C9BB263
:104E9000A34200D9221C93B29846E8884346FB18E7
:104EA0009BB29B463C00B74203D3A41BA4B2B442BE
:104EB000FBD24004430C18009A462B6860439C4682
:104EC000311B89B2604441454ED352464346494660
:104ED0005A43FDF7F5FCAB885B00BB4501D39B450E
:104EE00003DB5A46D31A9BB29B465B462B81E8688C
:104EF000002822D000F0E4FD1FE0AA8890469442EA
:104F000026D29F4244D34146FA1A92B2490012195E
:104F10008A4209DB42469A1892B2171BBFB29346E7
:104F2000BB423AD97F1ABFB2E3199BB246469B46B1
:104F3000A046E888B6E700239846404603B0F0BC98
:104F4000BB46B246A946A046F0BDFB1A9BB298E705
:104F5000E888A21A4404640C54434246A144002A3F
:104F6000C5D046461F0099E75346594389B20A0007
:104F700001914946FDF7A4FC43469A1B5346A218EB
:104F80005A430199286892B24944FDF799FCA2E777
:104F90005100CA1ABA1892B2B9E7B942C2DD464600
:104FA000E888A0467EE7C04610B50400C068002827
:104FB00003D00121494200F0A3FD2069002803D05D
:104FC0000121494200F09CFD0023E06863812381B8
:104FD000002801D000F074FD2069002801D000F005
:104FE0006FFD012010BDC04670B50400C0680D0003
:104FF000002803D00121494200F082FD20690028E9
:1050000003D00121494200F07BFD7F21E379ED01CE
:105010001940E0682943E171002801D000F050FDFB
:105020002069002801D000F04BFD012070BDC04672
:10503000F8B5DE4657464E4645468346E0B5052060
:105040000C00FDF763F90600600821008019FDF7E8
:105050002BFB430098468044070005214046FDF79E
:1050600023FB3B1A9A46204B8146700080199C42D4
:1050700034D81E49FDF718FB451C5B461C6800230D
:10508000E36622680433534006221A4080235B0102
:1050900023431A605346E3614B4623624346012093
:1050A0004F2B03D950214046FDF7FEFAA0232200E2
:1050B000E0508023E06F7C3245402D045B011343B8
:1050C0002D0C1D60012339003000E366FDF7ECFA7A
:1050D000F0BCBB46B246A946A046F8BD0449FDF760
:1050E000E3FA451CC9E7C0463F420F00809698008E
:1050F00040787D01104A70B5821A53425A41072305
:1051000052429A430D4B10321A600D4B0D4C1A60EF
:105110001500A3689D432B1EFAD166240268FF3454
:105120000571D5661460633C8833FF3CD563956395
:10513000D450FFF77DFF70BD0813002000E0004051
:1051400000F0004000C00040F0B557464E464546CE
:10515000DE4690460022E0B583B01E000CAB1B7803
:1051600084469A460368DA6601325960DA66002E90
:105170004FDD51464A405202019280229146320050
:105180008025771E0020464610219046AD00002461
:10519000002804D162461479621E9441A4020022C0
:1051A0009346B8421AD0325C22435C4622431A61CD
:1051B0005A6B1142FCD04A469C58002C11D1B8427F
:1051C00022D001308045E2D1634652461A7103B0C5
:1051D000F0BCBB46B246A946A046F0BD019A934634
:1051E000E1E75A6D012293465A6B2A42FCD01A6EAF
:1051F0005A46002AE5D0002C03D0E30701D4230748
:10520000E2D402204042DFE75246002AD9D1D346F9
:10521000EAE70020D8E7C04610B5034B0100186844
:1052200000F00EF810BDC0461013002010B5034B5F
:105230000100186800F050FB10BDC046101300209C
:10524000F0B54E464546DE465746E0B50D000B35F7
:10525000060083B0162D22D8102900D9B2E000F044
:10526000A9FA102518230220CC4FFB181A005C68FD
:10527000083A944200D1B5E0032362689A431300D0
:10528000E268A168CA6091600122E31859683000A1
:105290000A435A6000F090FA2000083095E0072396
:1052A0009D4300D58EE0A94200D98BE000F082FA40
:1052B000FC235B009D4200D2A1E1680A00D18BE093
:1052C000042800D974E138239846A809804439306D
:1052D000C100B24F79184C680839A1420ED003239F
:1052E0009C4604E0002ACBDAE468A14206D062467C
:1052F000636893435A1B0F2AF4DD40463A003C6929
:105300000832944200D178E00323616899438946CA
:105310000B00491B0F2900DD75E17A613A61002914
:10532000B2DA80229200914500D310E15909DA08DF
:1053300001238B40D2007968D2190B4391687B60BE
:10534000E260A1609460CC6001218210914099429A
:1053500059D80B4205D103229043490004300B4237
:10536000FBD003239846C3009946B944CC468246F5
:105370006346DC68A44507D126E1002A00DB2FE163
:10538000E468A44500D11FE14246636893435A1B79
:105390000F2AF2DD01208046611905436560A0688F
:1053A000E5680837C560A86040461043F960B960F9
:1053B0004860CF6030008F60E25000F0FDF92000BF
:1053C000083002E00C230020336003B0F0BCBB4681
:1053D000B246A946A046F0BD80213F234020984612
:1053E000890076E7DC680230A34200D044E73A0047
:1053F0003C690832944200D086E701217B68821024
:1054000091409942A5D90323BC6862689A439146AA
:10541000954203D8531B0F2B00DD8AE023004B4439
:105420005F4A01935F4B93469A4612681B68EB18DC
:10543000013200D136E15C4A944663441B0B1B03E6
:1054400000933000009900F0B9F903008046013361
:1054500000D1F3E0019B834200D9EDE05246009871
:10546000526803009446514663444B6001991A0008
:10547000414500D14BE15B461B68013300D150E14F
:10548000434601995B1A9A1853465A6007234246CD
:1054900041461A400192194200D10DE10823984675
:1054A000881A424B0099804441449B1A5B1A1B05A1
:1054B0001B0D0091300019009B4600F07FF9431C42
:1054C00000D14AE14346C01A03005B4400935346AF
:1054D00052465B6801215B44536042464046BA60D5
:1054E000009A0A434260BC4200D11EE14A460F2A9C
:1054F00000D81CE107200C3A824360680140052077
:1055000011436160A118486088600F2A00D92FE11B
:105510004246444652685146C96A994201D25146B0
:10552000CB625146096B994200D389E051460B6327
:1055300086E00122290013431143651961603000A0
:10554000BD606B6000F038F9200008303DE75A0A72
:10555000042A6BD9142A00D9BEE011005C325B31F9
:10556000D20008235B429C46BA18944463469A686A
:1055700003239846944500D197E0434651689943E8
:10558000494502D992689445F7D1D3689C467B6817
:105590006146A260E1608C60D460D5E648170020C7
:1055A00040170020941E00200F100000081000007B
:1055B000142852D9542800D996E06E239846280B17
:1055C00080446F30C10084E608239B46073BDC44DF
:1055D0009B46DA4443465246134200D0C8E64CE0AC
:1055E0000122E318596830000A435A60E368A26850
:1055F000D3609A6000F0E0F820000830E5E62B0068
:10560000E808083330E6012360191D4365607861BE
:105610003861C26082601A004B460A434260300023
:10562000E15000F0C9F820000830CEE69A091100D8
:1056300039323831D20094E7BC4260D0BC6862682D
:1056400003239A43531B954202D80F2B00DD70E7CA
:10565000300000F0B1F80020B7E65B2398468044A4
:105660005C30C10035E608235B429C46E1444B4672
:105670009B6801384B4500D097E043460342F2D186
:105680007B688B437B604900994200D9BBE60029C7
:1056900004D1B8E6042294464900E2440B42F9D012
:1056A000504660E610330093CBE68910023B8B40F6
:1056B00079680B437B606BE7009B300043445B429F
:1056C0001B051B0D19009B4600F078F8431C00D009
:1056D000F8E600239B46FAE6542A2AD81A0B110052
:1056E0006F326E31D2003CE7AA235B0098422AD881
:1056F000DD3B9846E80B80447830C100E9E553462D
:105700005B68009A9C46534662445A60B3E60905BA
:1057100000D0B0E60200BC684A4401310A4362602E
:10572000F9E65B4642461A60B0E64446F3E641605D
:105730008EE7AA2149008A4224D8DA0B1100783278
:105740007731D2000DE71A4B984224D87C23984633
:10575000A80C80447D30C100BBE5009A019B9446B3
:105760004246083B63449B1A009300239B46AEE6E7
:1057700021003000083100F0AFF85346BC685B6888
:105780006268C8E60A498A420BD89A0C11007D3239
:105790007C31D200E5E6FE217E237F2098468900F9
:1057A00097E5FE227E219200DBE67B686BE7C04630
:1057B000540500007047C0467047C046002370B5CE
:1057C000064D040008002B60FCF7D8FE431C00D0F7
:1057D00070BD2B68002BFBD02360F9E7C81E0020AA
:1057E00010B583070AD00300032102E001330B4206
:1057F00005D01A78002AF9D1181A10BD03001968CB
:105800000C4A0D4C8A188A4322420FD15968094A22
:1058100004338A188A43224208D15968054A04335E
:105820008A188A432242F1D000E001331A78002A14
:10583000FBD1E1E7FFFEFEFE80808080F8B50C0022
:105840000500FFF7B7FF204FBB685E6803239E4348
:105850001E4B341B9C466444240B013C113324032F
:105860009C4207DB00212800FFF7A8FFBB689B19BB
:10587000984204D02800FFF79FFF0020F8BD2800C1
:105880006142FFF79BFF431C0DD00122BB68361B12
:1058900016435E600E4B28001A68141B1C60FFF74D
:1058A0008BFF0120EAE700212800FFF787FFBA6895
:1058B000831A0F2BDEDD07490968401A0449086086
:1058C00001210B435360D5E748170020EF0F00007C
:1058D000981E002040170020F0B5C64605000C00B9
:1058E00000B500294FD0FFF765FF210008394C684B
:1058F000012622000320B2438F187B68834362484D
:1059000098468368BB426AD043467B6026421ED1DC
:1059100008239C460C688444091B12198C68644552
:105920004FD0CB68E3609C604346FC186468344207
:1059300011D1BB68554C4244A34200D17EE0FC68C3
:10594000DC60A360012313434B608A5006E0FC181F
:1059500064683442EDD016434E603A6080239B0069
:105960009A4213D25409D3080122A2404468DB00B2
:105970002243426018188368C8608B608160D960D8
:105980002800FFF719FF80BCB846F0BD530A042B6E
:105990003ED89409260039343836E40004192368C7
:1059A000083C03279C4242D05868B843904202D931
:1059B0009B689C42F8D1DC68CC608B60A160D960A8
:1059C000DEE74346F8184068304257D1FB68B868B4
:1059D00042441643C36098604E608A50D0E713007B
:1059E0004344264206D10A68891A8C689B18CA6803
:1059F000E260946001221A434A60254A816012687D
:105A00009A42BDD8234B28001968FFF717FFB7E764
:105A1000142B07D9542B1AD8140B26006F346E366A
:105A2000E400BBE71E005C335B36DC00B6E7012216
:105A3000B610B240466832434260BDE7D960996013
:105A4000CB608B60012313434B608A5098E7AA24F4
:105A50006400A34205D8D40B260078347736E400DE
:105A60009CE70D4CA34205D8940C26007D347C366F
:105A7000E40093E7FE247E26A4008FE7330013435F
:105A80004B603A607CE7C046481700205017002062
:105A900044170020941E002054050000F8B5C046AD
:105AA00001B40248844601BC604700BFF9090020E8
:105AB00001B40248844601BC604700BFD102002007
:105AC00001B40248844601BC604700BF3102002097
:105AD00001B40248844601BC604700BFD1090020E0
